:1000000025C03FC03EC03DC03CC03BC03AC039C027
:1000100038C037C036C035C034C033C032C031C03C
:1000200030C0680071009B00A400AB00B300B800B2
:10003000BE00C200C700CD00D100D700DC00E40044
:10004000EC00F100F500F9000001040111241FBECD
:10005000CFE5D2E0DEBFCDBF11E0A0E6B0E0E0EC3E
:10006000F2E002C005900D92AA30B107D9F721E065
:10007000AAE0B1E001C01D92AD30B207E1F7E3D0D4
:100080001DC1BECF5ED048E650E060E080E0B9D050
:1000900041E750E061E081E0B4C080910B019091B4
:1000A0000C01009799F08130910519F44FE750E069
:1000B0000AC08230910519F44BE850E004C0039760
:1000C00029F443E950E060E080E09BC008958FEFA1
:1000D0008BBBC198C09A1ABAC29AEFE6F7E1319782
:1000E000F1F700C00000CF99F3CF88B38A7F88BBB7
:1000F0008FEF8ABB0895CF93DF931F92CDB7DEB702
:100100008983E5DFC19889818BBBC29A80EA8A9591
:10011000F1F7C2980F90DF91CF910895CF93DF93BD
:100120001F92CDB7DEB78983D2DFC19A89818BBB9D
:10013000C29A80EA8A95F1F7C2980F90DF91CF9129
:10014000089581E0D8CF1BBA8FEF8ABB88B3887F30
:1001500088BB87B3876087BB2FE389E191E021509B
:1001600080409040E1F700C0000088E38BBBC29A5A
:1001700020EA2A95F1F7C2988FE295E70197F1F707
:1001800000C00000C29A90EA9A95F1F7C2988FE6F3
:1001900097E10197F1F700C00000C29A90EA9A95A2
:1001A000F1F7C2988FE697E10197F1F700C00000E0
:1001B000C8DF88E3A0DF88E09EDF86E09CDF8CE07C
:1001C0009ACF0F931F93CF93DF9300D0CDB7DEB7B5
:1001D000611160E48068862B49835A838CDF4981F2
:1001E000042F5A81152FF80181918F01882311F076
:1001F00095DFF9CF0F900F90DF91CF911F910F9165
:1002000008950F931F93CF93DF9300D0CDB7DEB740
:10021000611160E48068862B49835A836CDF4981D1
:10022000E42F5A81F52F84918F010F5F1F4F882390
:1002300019F074DFF801F7CF0F900F90DF91CF9195
:100240001F910F9108957FDF40E650E060E080E06D
:10025000B8DF18DF44E650E060E080E0B2DF949A57
:10026000959A969AC6E0D0E0849917DF859B12C0D4
:1002700080910B0190910C018730910530F401962B
:1002800090930C0180930B0104C010920C0110920A
:100290000B0103DF869BE8CF80910B0190910C014D
:1002A000009731F0019790930C0180930B0104C0EB
:1002B000D0930C01C0930B01F0DED6CFF894FFCFA2
:1002C000666F6F00626172004F70656E53564C42EC
:1002D000006461732D6C61626F722E6F72670066CD
:1002E0006978656420636F6C6F7200444D582033E9
:1002F000636800444D582039636800446976697327
:10030000696F6E0031207061727400332070617209
:100310007473004D6F646500466978656400444DF0
:1003200058004175746F00436F6C6F7200526564C2
:1003300000477265656E00426C7565004368616ECA
:100340006E656C0050726F6772616D004661646526
:10035000004F66660073656300546F67676C6500E5
:0A03600042504D00536F756E6400AB
:00000001FF
